{
  "contractName": "Dispute",
  "abi": [
    {
      "constant": true,
      "inputs": [
        {
          "name": "",
          "type": "uint256"
        }
      ],
      "name": "testing",
      "outputs": [
        {
          "name": "",
          "type": "uint256"
        }
      ],
      "payable": false,
      "stateMutability": "view",
      "type": "function",
      "signature": "0x6c30f765"
    },
    {
      "constant": true,
      "inputs": [],
      "name": "total_weight",
      "outputs": [
        {
          "name": "",
          "type": "uint256"
        }
      ],
      "payable": false,
      "stateMutability": "view",
      "type": "function",
      "signature": "0x91840a6b"
    },
    {
      "constant": true,
      "inputs": [
        {
          "name": "",
          "type": "uint256"
        }
      ],
      "name": "all_agreement",
      "outputs": [
        {
          "name": "client",
          "type": "address"
        },
        {
          "name": "service_provider",
          "type": "address"
        },
        {
          "name": "accepted",
          "type": "bool"
        },
        {
          "name": "name",
          "type": "string"
        },
        {
          "name": "status",
          "type": "bool"
        },
        {
          "name": "disagreement",
          "type": "bool"
        },
        {
          "name": "claimed",
          "type": "bool"
        },
        {
          "name": "claimed_time",
          "type": "uint256"
        },
        {
          "name": "max_time",
          "type": "uint256"
        },
        {
          "name": "weight_for",
          "type": "uint256"
        },
        {
          "name": "weight_against",
          "type": "uint256"
        },
        {
          "name": "value",
          "type": "uint256"
        }
      ],
      "payable": false,
      "stateMutability": "view",
      "type": "function",
      "signature": "0xabee0465"
    },
    {
      "inputs": [],
      "payable": false,
      "stateMutability": "nonpayable",
      "type": "constructor",
      "signature": "constructor"
    },
    {
      "constant": false,
      "inputs": [
        {
          "name": "_service_provider",
          "type": "address"
        },
        {
          "name": "_name",
          "type": "string"
        },
        {
          "name": "_max_time",
          "type": "uint256"
        },
        {
          "name": "_value",
          "type": "uint256"
        }
      ],
      "name": "add_agreement",
      "outputs": [],
      "payable": false,
      "stateMutability": "nonpayable",
      "type": "function",
      "signature": "0xb24d559f"
    },
    {
      "constant": false,
      "inputs": [
        {
          "name": "_t",
          "type": "uint256"
        }
      ],
      "name": "test",
      "outputs": [],
      "payable": false,
      "stateMutability": "nonpayable",
      "type": "function",
      "signature": "0x29e99f07"
    }
  ],
  "bytecode": "0x608060405234801561001057600080fd5b5060008081905550610960806100276000396000f30060806040526004361061006d576000357c0100000000000000000000000000000000000000000000000000000000900463ffffffff16806329e99f07146100725780636c30f7651461009f57806391840a6b146100e0578063abee04651461010b578063b24d559f14610266575b600080fd5b34801561007e57600080fd5b5061009d60048036038101908080359060200190929190505050610303565b005b3480156100ab57600080fd5b506100ca60048036038101908080359060200190929190505050610332565b6040518082815260200191505060405180910390f35b3480156100ec57600080fd5b506100f5610355565b6040518082815260200191505060405180910390f35b34801561011757600080fd5b506101366004803603810190808035906020019092919050505061035b565b604051808d73ffffffffffffffffffffffffffffffffffffffff1673ffffffffffffffffffffffffffffffffffffffff1681526020018c73ffffffffffffffffffffffffffffffffffffffff1673ffffffffffffffffffffffffffffffffffffffff1681526020018b151515158152602001806020018a151515158152602001891515151581526020018815151515815260200187815260200186815260200185815260200184815260200183815260200182810382528b818151815260200191508051906020019080838360005b83811015610220578082015181840152602081019050610205565b50505050905090810190601f16801561024d5780820380516001836020036101000a031916815260200191505b509d505050505050505050505050505060405180910390f35b34801561027257600080fd5b50610301600480360381019080803573ffffffffffffffffffffffffffffffffffffffff169060200190929190803590602001908201803590602001908080601f016020809104026020016040519081016040528093929190818152602001838380828437820191505050505050919291929080359060200190929190803590602001909291905050506104d6565b005b600381908060018154018082558091505090600182039060005260206000200160009091929091909150555050565b60038181548110151561034157fe5b906000526020600020016000915090505481565b60005481565b60018181548110151561036a57fe5b90600052602060002090600902016000915090508060000160009054906101000a900473ffffffffffffffffffffffffffffffffffffffff16908060010160009054906101000a900473ffffffffffffffffffffffffffffffffffffffff16908060010160149054906101000a900460ff1690806002018054600181600116156101000203166002900480601f0160208091040260200160405190810160405280929190818152602001828054600181600116156101000203166002900480156104755780601f1061044a57610100808354040283529160200191610475565b820191906000526020600020905b81548152906001019060200180831161045857829003601f168201915b5050505050908060030160009054906101000a900460ff16908060030160019054906101000a900460ff16908060030160029054906101000a900460ff1690806004015490806005015490806006015490806007015490806008015490508c565b60006104e06107f9565b6000429250610180604051908101604052803373ffffffffffffffffffffffffffffffffffffffff1681526020018873ffffffffffffffffffffffffffffffffffffffff16815260200160001515815260200187815260200160011515815260200160001515815260200160001515815260200184815260200186815260200160008152602001600081526020018581525091506001829080600181540180825580915050906001820390600052602060002090600902016000909192909190915060008201518160000160006101000a81548173ffffffffffffffffffffffffffffffffffffffff021916908373ffffffffffffffffffffffffffffffffffffffff16021790555060208201518160010160006101000a81548173ffffffffffffffffffffffffffffffffffffffff021916908373ffffffffffffffffffffffffffffffffffffffff16021790555060408201518160010160146101000a81548160ff021916908315150217905550606082015181600201908051906020019061066c92919061088f565b5060808201518160030160006101000a81548160ff02191690831515021790555060a08201518160030160016101000a81548160ff02191690831515021790555060c08201518160030160026101000a81548160ff02191690831515021790555060e0820151816004015561010082015181600501556101208201518160060155610140820151816007015561016082015181600801555050506001805490509050600460003373ffffffffffffffffffffffffffffffffffffffff1673ffffffffffffffffffffffffffffffffffffffff168152602001908152602001600020819080600181540180825580915050906001820390600052602060002001600090919290919091505550600560008873ffffffffffffffffffffffffffffffffffffffff1673ffffffffffffffffffffffffffffffffffffffff1681526020019081526020016000208190806001815401808255809150509060018203906000526020600020016000909192909190915055506001600080828254019250508190555050505050505050565b61018060405190810160405280600073ffffffffffffffffffffffffffffffffffffffff168152602001600073ffffffffffffffffffffffffffffffffffffffff1681526020016000151581526020016060815260200160001515815260200160001515815260200160001515815260200160008152602001600081526020016000815260200160008152602001600081525090565b828054600181600116156101000203166002900490600052602060002090601f016020900481019282601f106108d057805160ff19168380011785556108fe565b828001600101855582156108fe579182015b828111156108fd5782518255916020019190600101906108e2565b5b50905061090b919061090f565b5090565b61093191905b8082111561092d576000816000905550600101610915565b5090565b905600a165627a7a72305820e93dcea15d6ef119ec80960941d26c6e0ae35dfc76506ac935d697c975823fca0029",
  "source": "pragma solidity ^0.4.22;\n\ncontract Dispute{\n    \n    uint public total_weight;\n    \n    struct Agreement {\n        address client;\n        address service_provider;\n        bool accepted;\n        string name;\n        bool status;\n        bool disagreement;\n        bool claimed;\n        uint claimed_time;\n        uint max_time;\n        uint weight_for;\n        uint weight_against;\n        uint value;\n    }\n    \n    Agreement[] public all_agreement;\n    uint[] current_disputes;\n    uint[] public testing;\n    mapping (address => uint[]) address_to_agreement;\n    mapping (address => uint[]) address_from_agreement;\n    mapping (address => uint) address_to_weight;\n\n    constructor() public {\n        total_weight = 0;   \n    }\n\n    function add_agreement(address _service_provider,string memory _name,uint _max_time,uint _value) public{\n        uint claimed_time = now;\n        Agreement memory agreement = Agreement(msg.sender,_service_provider,false,_name,true,false,false,claimed_time,_max_time,0,0,_value);\n        all_agreement.push(agreement);\n        uint id = all_agreement.length;\n        address_to_agreement[msg.sender].push(id);\n        address_from_agreement[_service_provider].push(id);\n        total_weight+=1;\n    }\n\n    function test(uint _t) public {\n        testing.push(_t);\n    }\n    \n}",
  "sourcePath": "/Users/chiragshetty/Documents/hackathon/disputer/contracts/Dispute.sol",
  "compiler": {
    "name": "solc",
    "version": "0.4.25+commit.59dbf8f1.Emscripten.clang"
  },
  "schemaVersion": "3.0.0",
  "updatedAt": "2018-12-21T14:20:16.487Z",
  "devdoc": {
    "methods": {}
  },
  "userdoc": {
    "methods": {}
  }
}